:100000000C942A000C9447000C9447000C94470071
:100010000C9447000C9447000C9447000C944B261A
:100020000C9447000C9447000C9447000C94470034
:100030000C9447000C9447000C9447000C94470024
:100040000C9447000C9447000C9447000C94470014
:100050000C94470011241FBECFE5D8E0DEBFCDBF12
:1000600011E0A0E6B0E0E2EEF4E602C005900D92E9
:10007000A833B107D9F717E0A8E3B1E001C01D929A
:10008000AA36B107E1F70E9475130C946F320C94F5
:100090000000EF92FF920F931F937B018C0120E0F1
:1000A00030E040E05FE40E94F50388238CF0C80153
:1000B000B70120E030E040E05FE40E94C1010E940F
:1000C00055049B01AC01205030404040504806C0D0
:1000D000C801B7010E9455049B01AC01B901CA01D6
:1000E0001F910F91FF90EF900895A0E0B0E0EBE733
:1000F000F0E00C941932DC012B01FA019C91923052
:1001000008F439C1EB018881823008F433C194309E
:1001100069F4843009F02FC111969C91119789815F
:10012000981709F428C1ADEBB0E025C1843009F47B
:1001300021C18230A9F4923009F01DC19A01AD01AC
:1001400088E0EA010990AE01E90109929E0181501F
:10015000C1F7E201898111969C918923818308C1AD
:10016000923009F407C112962D903C901397EB0141
:100170008A819B811496AD90BD90CD90DC901797AD
:10018000EC80FD800E811F819101281B390BB90184
:1001900037FF04C066277727621B730B6032710537
:1001A0000CF061C0121613066CF537014801062EDB
:1001B00004C096948794779467940A94D2F721E0C8
:1001C00030E040E050E004C0220F331F441F551FB1
:1001D0006A95D2F721503040404050402E213F21B7
:1001E00040235123211531054105510521F021E01E
:1001F00030E040E050E079018A01E628F72808293C
:1002000019293CC0232BD1F1260E371E350146019A
:10021000062E04C096948794779467940A94D2F734
:1002200021E030E040E050E004C0220F331F441FC3
:10023000551F6A95D2F721503040404050402A2146
:100240003B214C215D21211531054105510521F04E
:1002500021E030E040E050E059016A01A628B728CB
:10026000C828D9280BC0821593052CF01C01AA249C
:10027000BB24650103C0EE24FF24870111969C91E5
:10028000D20111968C91981709F445C0992339F041
:10029000A80197012A193B094C095D0906C0A6016E
:1002A00095012E193F09400B510B57FD08C01182D3
:1002B0003382228224833583468357831DC081E0A5
:1002C00081833382228288279927DC01821B930B4A
:1002D000A40BB50B84839583A683B7830DC0220F2F
:1002E000331F441F551F24833583468357838281E0
:1002F000938101979383828324813581468157813D
:10030000DA01C9010197A109B1098F5F9F4FAF4F72
:10031000BF4328F30BC0918333822282EA0CFB1C7B
:100320000C1D1D1DE482F5820683178383E0808304
:10033000248135814681578157FF1AC0C901AA27F8
:1003400097FDA095BA2F81709070A070B0705695EF
:10035000479537952795822B932BA42BB52B848318
:100360009583A683B7838281938101969383828349
:10037000DF0101C0D201CD01CDB7DEB7E2E10C94BF
:100380003532A0E2B0E0E7ECF1E00C94253269836D
:100390007A838B839C832D833E834F835887E9E048
:1003A000EE2EF12CEC0EFD1ECE010196B7010E943F
:1003B0007E058E010F5E1F4FCE010596B8010E948B
:1003C0007E058A8991E089278A8BC701B801AE0131
:1003D000475E5F4F0E9475000E94A904A096E6E068
:1003E0000C944132A0E2B0E0E8EFF1E00C94253249
:1003F00069837A838B839C832D833E834F835887C5
:10040000F9E0EF2EF12CEC0EFD1ECE010196B701A6
:100410000E947E058E010F5E1F4FCE010596B8012A
:100420000E947E05C701B801AE01475E5F4F0E9482
:1004300075000E94A904A096E6E00C944132A0E267
:10044000B0E0E5E2F2E00C94193269837A838B83A1
:100450009C832D833E834F835887CE010196BE0136
:10046000675F7F4F0E947E05CE010596BE016F5EDD
:100470007F4F0E947E059985923088F0898982306D
:10048000C8F0943019F4823051F404C0843029F457
:10049000923081F48DEB90E0C6C0923049F420E0B8
:1004A0009A858A89981321E02A87CE010996BBC0D4
:1004B000823049F420E09A858A89981321E02A8BBA
:1004C000CE014196B0C02D843E844F8458886D88FB
:1004D0007E888F88988CEE24FF248701AA24BB2471
:1004E000650140E050E060E070E0E0E0F0E0C10174
:1004F00081709070892BE9F0E60CF71C081D191D1E
:100500009A01AB012A0D3B1D4C1D5D1D80E090E062
:10051000A0E0B0E0E614F7040805190520F481E036
:1005200090E0A0E0B0E0BA01A901480F591F6A1F8E
:100530007B1FAA0CBB1CCC1CDD1C97FE08C081E0F5
:1005400090E0A0E0B0E0A82AB92ACA2ADB2A3196B6
:10055000E032F10549F0660C771C881C991C569412
:10056000479437942794C3CFFA85EA892B893C892D
:100570008B859C85280F391F2E5F3F4F17C0CA01FE
:1005800081709070892B61F016950795F794E79428
:1005900080E090E0A0E0B0E8E82AF92A0A2B1B2BC3
:1005A00076956795579547952F5F3F4F77FDE7CF36
:1005B0000CC0440F551F661F771F17FD4160EE0CDE
:1005C000FF1C001F111F21503040403090E05907A0
:1005D00090E0690790E4790760F32B8F3C8FDB0193
:1005E000CA018F779070A070B07080349105A1051A
:1005F000B10561F447FD0AC0E114F10401051105DC
:1006000029F0405C5F4F6F4F7F4F40781A8EFE1786
:1006100011F081E08A8F4D8F5E8F6F8F78A383E01A
:10062000898FCE0149960E94A904A096E2E10C941C
:100630003532A8E1B0E0EFE1F3E00C9421326983B8
:100640007A838B839C832D833E834F835887B9E0C5
:10065000EB2EF12CEC0EFD1ECE010196B7010E948F
:100660007E058E010F5E1F4FCE010596B8010E94D8
:100670007E052985223008F47EC03989323010F495
:10068000B8017CC08A859A8989278A87243011F02D
:10069000223031F4231709F06EC06DEB70E06EC0AC
:1006A000343039F41D861E861F86188A1C861B86E8
:1006B00004C0323021F484E08987B7015FC02B8504
:1006C0003C858B899C89281B390B3C872B87ED84C3
:1006D000FE840F851889AD88BE88CF88D88CEA142F
:1006E000FB040C051D0540F4EE0CFF1C001F111F40
:1006F000215030403C872B8720E030E040E050E044
:1007000080E090E0A0E0B0E460E070E0EA14FB0478
:100710000C051D0540F0282B392B4A2B5B2BEA18C2
:10072000FB080C091D09B695A79597958795EE0CC2
:10073000FF1C001F111F6F5F7F4F6F31710531F775
:10074000DA01C9018F779070A070B0708034910584
:10075000A105B10561F427FD0AC0E114F10401050A
:10076000110529F0205C3F4F4F4F5F4F20782D87B8
:100770003E874F87588BBE01675F7F4FCB010E943A
:10078000A9046896EAE00C943D32A8E1B0E0EBECF5
:10079000F3E00C94253269837A838B839C832D83C9
:1007A0003E834F83588789E0E82EF12CEC0EFD1E26
:1007B000CE010196B7010E947E058E010F5E1F4F8C
:1007C000CE010596B8010E947E058985823040F0F1
:1007D0008989823028F0C701B8010E94F60501C05E
:1007E0008FEF6896E6E00C944132A8E1B0E0EBEFC1
:1007F000F3E00C94253269837A838B839C832D8369
:100800003E834F83588789E0E82EF12CEC0EFD1EC5
:10081000CE010196B7010E947E058E010F5E1F4F2B
:10082000CE010596B8010E947E058985823040F090
:100830008989823028F0C701B8010E94F60501C0FD
:100840008FEF6896E6E00C944132A8E1B0E0EBE26D
:10085000F4E00C94253269837A838B839C832D8307
:100860003E834F83588789E0E82EF12CEC0EFD1E65
:10087000CE010196B7010E947E058E010F5E1F4FCB
:10088000CE010596B8010E947E058985823040F030
:100890008989823028F0C701B8010E94F60501C09D
:1008A00081E06896E6E00C944132ACE0B0E0EBE524
:1008B000F4E00C94293269837A838B839C83CE0184
:1008C0000196BE016B5F7F4F0E947E058D81823055
:1008D00061F1823050F1843021F48E81882351F10E
:1008E0002EC02F81388537FD20C06E812F31310514
:1008F0001CF06623F9F023C08EE190E0821B930B7D
:1009000029853A854B855C8504C056954795379572
:1009100027958A95D2F76623B1F05095409530958A
:1009200021953F4F4F4F5F4F0EC020E030E040E039
:1009300050E009C02FEF3FEF4FEF5FE704C020E02A
:1009400030E040E050E8B901CA012C96E2E00C9496
:100950004532DF92EF92FF920F931F93FC01E480E8
:10096000F58006811781D1808081823048F480E053
:1009700090E0A0E1B0E0E82AF92A0A2B1B2BA5C0E1
:10098000843009F49FC0823021F4EE24FF248701D3
:1009900005C0E114F1040105110519F4E0E0F0E0EF
:1009A00096C0628173819FEF623879070CF05BC05B
:1009B00022E83FEF261B370B2A3131052CF020E0CF
:1009C00030E040E050E02AC0B801A701022E04C088
:1009D00076956795579547950A94D2F781E090E010
:1009E000A0E0B0E004C0880F991FAA1FBB1F2A9582
:1009F000D2F70197A109B1098E219F21A023B1232C
:100A00000097A105B10521F081E090E0A0E0B0E001
:100A10009A01AB01282B392B4A2B5B2BDA01C90138
:100A20008F779070A070B07080349105A105B105EA
:100A300039F427FF09C0205C3F4F4F4F5F4F04C080
:100A4000215C3F4F4F4F5F4FE0E0F0E02030A0E0EF
:100A50003A07A0E04A07A0E45A0710F0E1E0F0E00E
:100A600079018A0127C06038710564F5FB01E158FE
:100A7000FF4FD801C7018F779070A070B07080349D
:100A80009105A105B10539F4E7FE0DC080E490E0C1
:100A9000A0E0B0E004C08FE390E0A0E0B0E0E80E9A
:100AA000F91E0A1F1B1F17FF05C016950795F7941F
:100AB000E794319687E016950795F794E7948A9521
:100AC000D1F705C0EE24FF248701EFEFF0E06E2F91
:100AD000679566276795902F9F77D794DD24D794E5
:100AE0008E2F8695492F462B582F5D29B701CA01B5
:100AF0001F910F91FF90EF90DF900895FC01DB01B3
:100B0000408151812281622F6F7770E0221F22275E
:100B1000221F9381892F880F822B282F30E0991F65
:100B20009927991F11969C93119721153105A9F5C5
:100B3000411551056105710511F482E037C082E865
:100B40009FEF13969C938E9312979A01AB0167E0E7
:100B5000220F331F441F551F6A95D1F783E08C93F2
:100B60000DC0220F331F441F551F12968D919C916B
:100B70001397019713969C938E931297203080E0E1
:100B8000380780E0480780E4580758F314962D93FF
:100B90003D934D935C93179708952F3F310579F45A
:100BA000411551056105710519F484E08C93089590
:100BB00064FF03C081E08C9312C01C9210C02F57B9
:100BC000304013963C932E93129783E08C9387E0EA
:100BD000440F551F661F771F8A95D1F770641496CE
:100BE0004D935D936D937C93179708951F93DC014C
:100BF000FB019C91923008F447C08081823008F458
:100C000043C0943051F411961C91843099F5818140
:100C1000682F70E0611B71093FC0843021F0923071
:100C200031F48230B9F18181882389F12DC0119688
:100C30001C9111978230F1F081811817D9F4129626
:100C40002D913C911397828193818217930794F0A1
:100C500028173907BCF014968D919D910D90BC9189
:100C6000A02D2481358146815781281739074A07ED
:100C70005B0718F4112341F00AC082179307A407F9
:100C8000B50740F4112319F061E070E005C06FEF83
:100C90007FEF02C060E070E0CB011F910895DF9309
:100CA000CF93CDB7DEB7A3970FB6F894DEBF0FBED4
:100CB000CDBF9BA38AA381E088A31D8E8AA19BA19F
:100CC000009709F46FC1EAA1FBA18FEF80831F8E0B
:100CD00064C18F8D882F90E0FC01E85CFE4F20817D
:100CE0008F8D882F90E0FC01EB53FF4F9081822F76
:100CF000692F40E00E945B101E8E32C18E8D882FBE
:100D000090E0FC01E45CFE4F40818E8D882F90E0E6
:100D1000FC01E753FF4F90819E012F5D3F4F842FD1
:100D2000692FA9010E94711189A1882309F015C1B9
:100D300080E090E0A0EAB1E4898F9A8FAB8FBC8FFE
:100D4000698D7A8D8B8D9C8D20E030E04AEF54E4E4
:100D50000E941F02DC01CB018D8B9E8BAF8BB88F65
:100D60006D897E898F89988D20E030E040E85FE3CF
:100D70000E94250488232CF481E090E09C8B8B8BCF
:100D80003FC06D897E898F89988D20E03FEF4FE7C6
:100D900057E40E94C50318164CF5698D7A8D8B8D2A
:100DA0009C8D20E030E040E251E40E941F02DC0113
:100DB000CB01BC01CD010E944900DC01CB019C8B21
:100DC0008B8B0FC088EC90E09A8B898B89899A89EC
:100DD0000197F1F79A8B898B8B899C8901979C8B62
:100DE0008B8B8B899C89009769F72BC06D897E89D5
:100DF0008F89988D0E944900DC01CB019C8B8B8BE5
:100E00008B899C89988B8F878F8598890197F1F7BB
:100E1000988B8F8716C08E8D882F90E0FC01E45C44
:100E2000FE4F40818E8D882F90E0FC01E753FF4FED
:100E300090819E012F5D3F4F842F692FA9010E9451
:100E4000711189A1882339F380E090E0A0EAB1E430
:100E50008B879C87AD87BE876B857C858D859E85BE
:100E600020E030E04AEF54E40E941F02DC01CB0195
:100E70008F839887A987BA876F81788589859A85B6
:100E800020E030E040E85FE30E94250488232CF452
:100E900081E090E09E838D833FC06F817885898556
:100EA0009A8520E03FEF4FE757E40E94C5031816EC
:100EB0004CF56B857C858D859E8520E030E040E299
:100EC00051E40E941F02DC01CB01BC01CD010E9454
:100ED0004900DC01CB019E838D830FC088EC90E03C
:100EE0009C838B838B819C810197F1F79C838B83FF
:100EF0008D819E8101979E838D838D819E81009738
:100F000069F714C06F81788589859A850E944900A8
:100F1000DC01CB019E838D838D819E819A838983A1
:100F200089819A810197F1F79A8389838F8D482F60
:100F300050E08E8D282F30E0CA01880F991F880F4E
:100F4000991F820F931FFC01E353FF4F8081EAA199
:100F5000FBA1808381E08D8F07C08E8D8F5F8E8F88
:100F60008E8D843008F4CACE8F8D882F90E0FC01DE
:100F7000E85CFE4F20818F8D882F90E0FC01EB53C1
:100F8000FF4F9081822F692F41E00E945B108D8D71
:100F9000882349F48F8D8F5F8F8F8F8D843008F475
:100FA00098CE01C018A288A1A3960FB6F894DEBF10
:100FB0000FBECDBFCF91DF9108950F931F93DF93A5
:100FC000CF93CDB7DEB7C655D0400FB6F894DEBF8D
:100FD0000FBECDBFFE01ED5AFF4F80E090E0A8EFBD
:100FE000B1E480839183A283B3838E01015B1F4FA1
:100FF000FE01ED5AFF4F60817181828193812BEA5E
:101000003AEA4AE250E40E941F02DC01CB01F801F7
:1010100080839183A283B383FE01E15BFF4F6081F4
:1010200071818281938120E030E040E85FE30E949B
:101030002504882334F4FE01E25BFF4F81E08083C6
:10104000E0C0FE01E15BFF4F60817181828193818D
:1010500020E030E04FE753E40E94C50318160CF07F
:10106000C0C0FE01ED5AFF4F608171818281938182
:1010700020E030E04AE754E40E941903DC01CB0190
:10108000FE01E65BFF4F80839183A283B3838E01D1
:101090000A5B1F4FFE01E65BFF4F60817181828119
:1010A000938120E030E04AEF54E40E941F02DC010B
:1010B000CB01F80180839183A283B383FE01EA5BB5
:1010C000FF4F608171818281938120E030E040E8B0
:1010D0005FE30E942504882344F4FE01EC5BFF4F8C
:1010E00081E090E09183808364C0FE01EA5BFF4F62
:1010F000608171818281938120E03FEF4FE757E467
:101100000E94C50318160CF043C0FE01E65BFF4FBA
:10111000608171818281938120E030E040E251E47E
:101120000E941F02DC01CB018E010C5B1F4FBC0132
:10113000CD010E944900DC01CB01F801918380833D
:101140001FC0FE01EE5BFF4F88EC90E0918380832F
:10115000FE01EE5BFF4F808191810197F1F7FE0167
:10116000EE5BFF4F91838083DE01AC5BBF4FFE01DE
:10117000EC5BFF4F80819181019711969C938E9338
:10118000FE01EC5BFF4F808191810097D1F642C058
:101190008E010C5B1F4FFE01EA5BFF4F6081718186
:1011A000828193810E944900DC01CB01F801918387
:1011B0008083DE01A05CBF4FFE01EC5BFF4F8081AE
:1011C000918111969C938E93FE01E05CFF4F80818C
:1011D00091810197F1F7FE01E05CFF4F91838083DD
:1011E00019C08E01025B1F4FFE01E15BFF4F608162
:1011F0007181828193810E944900DC01CB01F80159
:101200008083FE01E25BFF4F80818FAF8FAD8A95B7
:10121000F1F78FAF88E30E94100B80E090E0A0E22E
:10122000B2E48BAF9CAFADAFBEAF6BAD7CAD8DAD5F
:101230009EAD2BEA3AEA4AE250E40E941F02DC012A
:10124000CB018FAB98AFA9AFBAAF6FA978AD89AD1D
:101250009AAD20E030E040E85FE30E942504882357
:101260001CF481E08EAB91C06FA978AD89AD9AADC9
:1012700020E030E04FE753E40E94C50318160CF05D
:101280007BC06BAD7CAD8DAD9EAD20E030E04AE71C
:1012900054E40E941903DC01CB018AAB9BABACABDD
:1012A000BDAB6AA97BA98CA99DA920E030E04AEFDB
:1012B00054E40E941F02DC01CB018EA79FA7A8ABBC
:1012C000B9AB6EA57FA588A999A920E030E040E8D8
:1012D0005FE30E94250488232CF481E090E09DA721
:1012E0008CA73FC06EA57FA588A999A920E03FEFF4
:1012F0004FE757E40E94C50318164CF56AA97BA96D
:101300008CA99DA920E030E040E251E40E941F0238
:10131000DC01CB01BC01CD010E944900DC01CB0105
:101320009DA78CA70FC088EC90E09BA78AA78AA5F1
:101330009BA50197F1F79BA78AA78CA59DA501976F
:101340009DA78CA78CA59DA5009769F724C06EA5C5
:101350007FA588A999A90E944900DC01CB019DA71E
:101360008CA78CA59DA599A788A788A599A5019765
:10137000F1F799A788A70FC06FA978AD89AD9AAD8D
:101380000E944900DC01CB018EAB8EA98FA38FA1F7
:101390008A95F1F78FA38CE00E94100B80E090E01B
:1013A000A0E2B2E48BA39CA3ADA3BEA36BA17CA1DE
:1013B0008DA19EA12BEA3AEA4AE250E40E941F0264
:1013C000DC01CB018F8F98A3A9A3BAA36F8D78A15D
:1013D00089A19AA120E030E040E85FE30E94250463
:1013E00088231CF481E08E8F91C06F8D78A189A134
:1013F0009AA120E030E04FE753E40E94C50318169D
:101400000CF07BC06BA17CA18DA19EA120E030E0FF
:101410004AE754E40E941903DC01CB018A8F9B8FB9
:10142000AC8FBD8F6A8D7B8D8C8D9D8D20E030E0E3
:101430004AEF54E40E941F02DC01CB018E8B9F8B8C
:10144000A88FB98F6E897F89888D998D20E030E0D3
:1014500040E85FE30E94250488232CF481E090E0BB
:101460009D8B8C8B3FC06E897F89888D998D20E004
:101470003FEF4FE757E40E94C50318164CF56A8DFD
:101480007B8D8C8D9D8D20E030E040E251E40E9408
:101490001F02DC01CB01BC01CD010E944900DC012F
:1014A000CB019D8B8C8B0FC088EC90E09B8B8A8B43
:1014B0008A899B890197F1F79B8B8A8B8C899D89FF
:1014C00001979D8B8C8B8C899D89009769F724C02F
:1014D0006E897F89888D998D0E944900DC01CB013E
:1014E0009D8B8C8B8C899D89998B888B8889998918
:1014F0000197F1F7998B888B0FC06F8D78A189A127
:101500009AA10E944900DC01CB018E8F8E8D8F87BE
:101510008F858A95F1F78F8781E00E94100B80E01C
:1015200090E0A0E0B0E48B879C87AD87BE876B8599
:101530007C858D859E8520E030E04AEF54E40E9452
:101540001F02DC01CB018F839887A987BA876F813F
:10155000788589859A8520E030E040E85FE30E9445
:10156000250488232CF481E090E09E838D833FC086
:101570006F81788589859A8520E03FEF4FE757E4B2
:101580000E94C50318164CF56B857C858D859E855C
:1015900020E030E040E251E40E941F02DC01CB0178
:1015A000BC01CD010E944900DC01CB019E838D83EB
:1015B0000FC088EC90E09C838B838B819C8101978A
:1015C000F1F79C838B838D819E8101979E838D8310
:1015D0008D819E81009769F714C06F817885898518
:1015E0009A850E944900DC01CB019E838D838D8109
:1015F0009E819A83898389819A810197F1F79A83E1
:10160000898386E00E94100BCA5ADF4F0FB6F89408
:10161000DEBF0FBECDBFCF91DF911F910F91089517
:10162000DF93CF93CDB7DEB76A970FB6F894DEBFDE
:101630000FBECDBF8A8F81E0898F82E060E040E0FD
:101640000E945B1082E061E040E00E945B1083E05A
:101650006A8D0E94D21282E062E041E00E945B103B
:1016600080E090E0A0E8BFE38D8B9E8BAF8BB88FBE
:101670006D897E898F89988D2BEA3AEA4AE250E497
:101680000E941F02DC01CB01898B9A8BAB8BBC8B38
:1016900069897A898B899C8920E030E040E85FE3A2
:1016A0000E94250488231CF481E0888B91C06989FD
:1016B0007A898B899C8920E030E04FE753E40E94CF
:1016C000C50318160CF07BC06D897E898F89988DB3
:1016D00020E030E04AE754E40E941903DC01CB012A
:1016E0008C879D87AE87BF876C857D858E859F851E
:1016F00020E030E04AEF54E40E941F02DC01CB01FD
:1017000088879987AA87BB87688579858A859B851D
:1017100020E030E040E85FE30E94250488232CF4B9
:1017200081E090E09F838E833FC0688579858A85BC
:101730009B8520E03FEF4FE757E40E94C503181652
:101740004CF56C857D858E859F8520E030E040E2FC
:1017500051E40E941F02DC01CB01BC01CD010E94BB
:101760004900DC01CB019F838E830FC088EC90E0A1
:101770009D838C838C819D810197F1F79D838C8360
:101780008E819F8101979F838E838E819F81009799
:1017900069F724C0688579858A859B850E94490000
:1017A000DC01CB019F838E838E819F819B838A8303
:1017B0008A819B810197F1F79B838A830FC0698996
:1017C0007A898B899C890E944900DC01CB01888B36
:1017D0008889898389818A95F1F7898382E062E02B
:1017E00040E00E945B10898D6A960FB6F894DEBFC8
:1017F0000FBECDBFCF91DF910895DF93CF93CDB7CB
:10180000DEB76A970FB6F894DEBF0FBECDBF8A8FE2
:1018100081E0898F82E060E041E00E945B1082E01D
:1018200061E040E00E945B1083E06A8D0E94D2126A
:1018300082E062E041E00E945B1080E090E0A0E87E
:10184000BFE38D8B9E8BAF8BB88F6D897E898F891F
:10185000988D2BEA3AEA4AE250E40E941F02DC012A
:10186000CB01898B9A8BAB8BBC8B69897A898B89ED
:101870009C8920E030E040E85FE30E942504882353
:101880001CF481E0888B91C069897A898B899C8955
:1018900020E030E04FE753E40E94C50318160CF037
:1018A0007BC06D897E898F89988D20E030E04AE782
:1018B00054E40E941903DC01CB018C879D87AE871D
:1018C000BF876C857D858E859F8520E030E04AEF5F
:1018D00054E40E941F02DC01CB0188879987AA8704
:1018E000BB87688579858A859B8520E030E040E864
:1018F0005FE30E94250488232CF481E090E09F831D
:101900008E833FC0688579858A859B8520E03FEF7F
:101910004FE757E40E94C50318164CF56C857D858A
:101920008E859F8520E030E040E251E40E941F0256
:10193000DC01CB01BC01CD010E944900DC01CB01DF
:101940009F838E830FC088EC90E09D838C838C8175
:101950009D810197F1F79D838C838E819F810197F3
:101960009F838E838E819F81009769F724C068854D
:1019700079858A859B850E944900DC01CB019F8384
:101980008E838E819F819B838A838A819B8101972D
:10199000F1F79B838A830FC069897A898B899C8937
:1019A0000E944900DC01CB01888B88898983898169
:1019B0008A95F1F7898382E062E040E00E945B1043
:1019C000898D6A960FB6F894DEBF0FBECDBFCF915A
:1019D000DF910895DF93CF9300D000D00F92CDB761
:1019E000DEB78A836B8381E089838A81282F30E088
:1019F0003D832C838C819D818130910531F02C8138
:101A00003D812230310531F00AC08B8180580E941F
:101A1000100B06C08B8180540E94100B01C01982EC
:101A200089810F900F900F900F900F90CF91DF91C1
:101A30000895DF93CF9300D000D00F92CDB7DEB7DB
:101A40009C838B836D8381E08A8319821FC0898187
:101A5000482F50E08D81282F30E080E190E0821BFC
:101A6000930B4817590721F482E060E00E94EA0CCA
:101A70008981282F30E08B819C81FC01E20FF31FCC
:101A800080810E94FD0B89818F5F89838981282F46
:101A900030E08B819C81FC01E20FF31F8081882361
:101AA000B1F68A810F900F900F900F900F90CF9109
:101AB000DF910895DF93CF93CDB7DEB72B970FB6A5
:101AC000F894DEBF0FBECDBF9B878A8781E08987F0
:101AD0008A859B859F838E8381E090E09D838C83A4
:101AE0001B828A859B85009789F480E30E94FD0B09
:101AF00057C08E819F812AE030E0B9010E940532F3
:101B0000CB019F838E838B818F5F8B838E819F819F
:101B1000009779F71A8211C08C819D819C01220F58
:101B2000331FC901880F991F880F991F820F931FB8
:101B30009D838C838A818F5F8A838A81282F30E0FE
:101B40008B81882F90E00197281739072CF3198291
:101B500023C08A859B852C813D81B9010E94053275
:101B6000CB0188878A859B852C813D81B9010E94A4
:101B700005329B878A878C819D812AE030E0B901FC
:101B80000E940532CB019D838C838885805D0E94F5
:101B9000FD0B89818F5F898399818B819817C8F2AA
:101BA00089852B960FB6F894DEBF0FBECDBFCF91BF
:101BB000DF910895DF93CF9300D000D00F92CDB77F
:101BC000DEB79C838B836D8381E08A838D81805C0B
:101BD0000E94100B19820EC08981282F30E08B8162
:101BE0009C81FC01E20FF31F80810E94FD0B898123
:101BF0008F5F89838981883078F38A810F900F9075
:101C00000F900F900F90CF91DF910895DF93CF93B6
:101C100000D000D0CDB7DEB78A836B834C8381E0E0
:101C200089838B816C810E94EA0C8A810E94FD0B62
:101C300089810F900F900F900F90CF91DF910895B1
:101C4000DF93CF93CDB7DEB72E970FB6F894DEBFF4
:101C50000FBECDBF81E00E94100B80E090E0A8ECA9
:101C6000B2E48B879C87AD87BE876B857C858D852D
:101C70009E8520E030E04AEF54E40E941F02DC0120
:101C8000CB018F839887A987BA876F8178858985EB
:101C90009A8520E030E040E85FE30E942504882335
:101CA0002CF481E090E09E838D833FC06F81788526
:101CB00089859A8520E03FEF4FE757E40E94C503EE
:101CC00018164CF56B857C858D859E8520E030E06F
:101CD00040E251E40E941F02DC01CB01BC01CD01B6
:101CE0000E944900DC01CB019E838D830FC088ECEC
:101CF00090E09C838B838B819C810197F1F79C837F
:101D00008B838D819E8101979E838D838D819E81A2
:101D1000009769F714C06F81788589859A850E943C
:101D20004900DC01CB019E838D838D819E819A8346
:101D3000898389819A810197F1F79A83898381E068
:101D40002E960FB6F894DEBF0FBECDBFCF91DF91B8
:101D50000895DF93CF930F92CDB7DEB781E08983EB
:101D6000EAE3F0E080EF8083E7E3F0E081E0808366
:101D7000E4E3F0E087E08083E1E3F0E08FEF80834D
:101D8000EBE3F0E08FEF8083E8E3F0E01082E5E33F
:101D9000F0E01082E2E3F0E0108289810F90CF91B1
:101DA000DF910895DF93CF93CDB7DEB72C970FB6B1
:101DB000F894DEBF0FBECDBF8A836B834C8319823C
:101DC0008A81843008F06DC18B81883008F069C148
:101DD00081E089838C81282F30E03C872B878B859D
:101DE0009C858130910561F02B853C852230310541
:101DF00009F4E2C08B859C85009709F470C050C13E
:101E00008A81282F30E03A87298789859A85813011
:101E1000910549F129853A85223031052CF48985CF
:101E20009A85009761F03DC129853A8522303105B8
:101E300071F189859A8583309105E9F132C1AAE370
:101E4000B0E0EAE3F0E08081482F8B81282F30E07A
:101E500081E090E0022E02C0880F991F0A94E2F7F9
:101E6000842B8C931EC1A7E3B0E0E7E3F0E0808110
:101E7000482F8B81282F30E081E090E0022E02C0B5
:101E8000880F991F0A94E2F7842B8C930AC1A4E36C
:101E9000B0E0E4E3F0E08081482F8B81282F30E030
:101EA00081E090E0022E02C0880F991F0A94E2F7A9
:101EB000842B8C93F6C0A1E3B0E0E1E3F0E08081F5
:101EC000482F8B81282F30E081E090E0022E02C065
:101ED000880F991F0A94E2F7842B8C93E2C08A81C1
:101EE000282F30E038872F838F81988581309105A6
:101EF00049F12F813885223031052CF48F81988566
:101F0000009761F059C02F8138852230310571F179
:101F10008F81988583309105E9F14EC0ABE3B0E045
:101F2000EBE3F0E08081482F8B81282F30E081E0C7
:101F300090E0022E02C0880F991F0A94E2F7842BCA
:101F40008C933AC0A8E3B0E0E8E3F0E08081482F4A
:101F50008B81282F30E081E090E0022E02C0880FB4
:101F6000991F0A94E2F7842B8C9326C0A5E3B0E076
:101F7000E5E3F0E08081482F8B81282F30E081E07D
:101F800090E0022E02C0880F991F0A94E2F7842B7A
:101F90008C9312C0A2E3B0E0E2E3F0E08081482F2E
:101FA0008B81282F30E081E090E002C0880F991FDC
:101FB0002A95E2F7842B8C938A81282F30E03E8388
:101FC0002D838D819E818130910559F12D813E8136
:101FD000223031052CF48D819E81009769F061C01B
:101FE0002D813E812230310589F18D819E818330A2
:101FF000910509F440C055C0AAE3B0E0EAE3F0E07F
:102000008081482F8B81282F30E081E090E0022EE4
:1020100002C0880F991F0A94E2F7809584238C935D
:1020200040C0A7E3B0E0E7E3F0E08081482F8B8178
:10203000282F30E081E090E0022E02C0880F991F27
:102040000A94E2F7809584238C932BC0A4E3B0E03C
:10205000E4E3F0E08081482F8B81282F30E081E09D
:1020600090E0022E02C0880F991F0A94E2F7809533
:1020700084238C9316C0A1E3B0E0E1E3F0E080811B
:10208000482F8B81282F30E081E090E0022E02C0A3
:10209000880F991F0A94E2F7809584238C9301C0DE
:1020A000198289812C960FB6F894DEBF0FBECDBF82
:1020B000CF91DF910895DF93CF93CDB7DEB72A9705
:1020C0000FB6F894DEBF0FBECDBF8A836B834C83FF
:1020D00019828A81843008F0FAC08B81883008F038
:1020E000F6C081E089838C81282F30E03A872987E8
:1020F00089859A85009709F475C029853A8521302C
:10210000310509F0E3C08A81282F30E038872F831A
:102110008F8198858130910549F12F813885223052
:1021200031052CF48F819885009761F0D0C02F8104
:1021300038852230310571F18F8198858330910582
:10214000E9F1C5C0ABE3B0E0EBE3F0E08081482FFC
:102150008B81282F30E081E090E0022E02C0880FB2
:10216000991F0A94E2F7842B8C93B1C0A8E3B0E0E6
:10217000E8E3F0E08081482F8B81282F30E081E078
:1021800090E0022E02C0880F991F0A94E2F7842B78
:102190008C939DC0A5E3B0E0E5E3F0E08081482F9B
:1021A0008B81282F30E081E090E0022E02C0880F62
:1021B000991F0A94E2F7842B8C9389C0A2E3B0E0C4
:1021C000E2E3F0E08081482F8B81282F30E081E02E
:1021D00090E0022E02C0880F991F0A94E2F7842B28
:1021E0008C9375C08A81282F30E03E832D838D81AA
:1021F0009E818130910559F12D813E81223031053A
:102200002CF48D819E81009769F061C02D813E8103
:102210002230310589F18D819E818330910509F449
:1022200040C055C0ABE3B0E0EBE3F0E08081482F65
:102230008B81282F30E081E090E0022E02C0880FD1
:10224000991F0A94E2F7809584238C9340C0A8E3F9
:10225000B0E0E8E3F0E08081482F8B81282F30E068
:1022600081E090E0022E02C0880F991F0A94E2F7E5
:10227000809584238C932BC0A5E3B0E0E5E3F0E0E8
:102280008081482F8B81282F30E081E090E0022E62
:1022900002C0880F991F0A94E2F7809584238C93DB
:1022A00016C0A2E3B0E0E2E3F0E08081482F8B812A
:1022B000282F30E081E090E0022E02C0880F991FA5
:1022C0000A94E2F7809584238C9301C01982898156
:1022D0002A960FB6F894DEBF0FBECDBFCF91DF9127
:1022E0000895DF93CF93CDB7DEB727970FB6F89455
:1022F000DEBF0FBECDBF8A836B835D834C831982A3
:102300008A81843008F07DC08B81883008F079C0E4
:102310008C819D81009709F474C081E089838A8152
:10232000282F30E03F832E834E815F81413051055D
:1023300059F18E819F818230910534F42E813F8145
:102340002115310569F05CC04E815F814230510535
:1023500079F18E819F818330910509F43DC050C091
:10236000E9E3F0E08081282F30E08B81882F90E036
:10237000A90102C0559547958A95E2F7CA01817077
:10238000EC81FD8180833DC0E6E3F0E08081282F71
:1023900030E08B81882F90E0A90102C055954795C8
:1023A0008A95E2F7CA018170EC81FD81808329C0A2
:1023B000E3E3F0E08081282F30E08B81882F90E0EC
:1023C000A90102C0559547958A95E2F7CA01817027
:1023D000EC81FD81808315C0E0E3F0E08081282F4F
:1023E00030E08B81882F90E0A90102C05595479578
:1023F0008A95E2F7CA018170EC81FD81808301C07A
:102400001982898127960FB6F894DEBF0FBECDBF23
:10241000CF91DF910895DF93CF93CDB7DEB72B97A0
:102420000FB6F894DEBF0FBECDBF8A836B831982CF
:102430008A81843008F0ACC081E089838B81282FA9
:1024400030E03B872A878A859B858130910559F04A
:102450002A853B852230310509F46AC08A859B852F
:102460000097A1F194C08A81282F30E0398728870E
:102470008885998581309105D1F02885398522306C
:1024800031052CF488859985009761F081C02885F5
:1024900039852230310581F0888599858330910511
:1024A00081F076C0EAE3F0E08FEF808371C0E7E36C
:1024B000F0E08FEF80836CC0E4E3F0E08FEF808387
:1024C00067C0E1E3F0E08FEF808362C08A81282F4C
:1024D00030E03F832E838E819F8181309105D1F042
:1024E0002E813F81223031052CF48E819F8100970F
:1024F00061F01EC02E813F812230310581F08E8136
:102500009F818330910581F013C0EBE3F0E08FEF02
:1025100080830EC0E8E3F0E08FEF808309C0E5E33D
:10252000F0E08FEF808304C0E2E3F0E08FEF808380
:102530008A81282F30E03D832C838C819D818130DE
:102540009105C9F02C813D81223031052CF48C811C
:102550009D81009761F01CC02C813D8122303105A6
:1025600071F08C819D818330910569F011C0EAE39F
:10257000F0E010820DC0E7E3F0E0108209C0E4E370
:10258000F0E0108205C0E1E3F0E0108201C01982A2
:1025900089812B960FB6F894DEBF0FBECDBFCF91C9
:1025A000DF910895DF93CF9300D000D00F92CDB785
:1025B000DEB78A836B8319828A818430A0F581E03B
:1025C00089838A81282F30E03D832C838C819D81F3
:1025D00081309105D1F02C813D81223031052CF4E0
:1025E0008C819D81009761F01EC02C813D8122303D
:1025F000310581F08C819D818330910581F013C07C
:10260000EBE3F0E08B8180830EC0E8E3F0E08B81A8
:10261000808309C0E5E3F0E08B81808304C0E2E3BE
:10262000F0E08B81808389810F900F900F900F9045
:102630000F90CF91DF910895DF93CF9300D000D01A
:1026400000D0CDB7DEB78A837C836B8319828A8101
:10265000843008F040C08B819C810097E1F181E0DB
:1026600089838A81282F30E03E832D838D819E814E
:1026700081309105E1F02D813E81223031052CF42D
:102680008D819E81009761F026C02D813E81223090
:102690003105A1F08D819E8183309105B1F01BC081
:1026A000E9E3F0E08081EB81FC81808314C0E6E304
:1026B000F0E08081EB81FC8180830DC0E3E3F0E0FA
:1026C0008081EB81FC81808306C0E0E3F0E08081C3
:1026D000EB81FC818083898126960FB6F894DEBF5A
:1026E0000FBECDBFCF91DF910895AF92BF92CF9231
:1026F000DF92EF92FF920F93DF93CF930F92CDB7BC
:10270000DEB70E94A90E0E94DD070E94BA3181E067
:1027100060E00E94EA0C80E690E060E00E94190D03
:1027200082E060E00E94EA0C81E790E060E00E94B5
:10273000190D0E94EC1E89830E94200E8981873327
:1027400029F58BE594E160E070E048EC50E020E092
:1027500030E000E0EE24FF24CC24DD24AA24BB24B6
:102760000E94CF2A8FE994E160E070E048E552E0F2
:1027700020E030E000E0EE24FF24CC24DD24AA2475
:10278000BB240E94CF2A0E94C82CC1CF89818833E4
:1027900009F057C084E061E00E944E2690936707DD
:1027A0008093660781E060E00E944E26909369075F
:1027B000809368078091680790916907009759F0A6
:1027C000809168079091690760E070E040E050E018
:1027D00020E00E94F7268BE798E160E070E048EC8B
:1027E00050E020E030E002E0EE24FF24CC24DD24A1
:1027F000AA24BB240E94CF2A84EA98E160E070E01A
:102800004EE551E020E030E003E0EE24FF24CC244C
:10281000DD24AA24BB240E94CF2A83EB9AE160E046
:1028200070E04AEF50E020E030E001E0EE24FF24C9
:10283000CC24DD24AA24BB240E94CF2A0E94C82CC9
:1028400066CF8981893309F062CF82ED9BE160E038
:1028500070E04CE251E020E030E003E0EE24FF24A1
:10286000CC24DD24AA24BB240E94CF2A87E19CE14A
:1028700060E070E04CE251E020E030E003E0EE2464
:10288000FF24CC24DD24AA24BB240E94CF2A8CE779
:102890009CE160E070E040E951E020E030E004E0DD
:1028A000EE24FF24CC24DD24AA24BB240E94CF2ABA
:1028B0000E94C82C2CCFDF93CF9300D00F92CDB7BE
:1028C000DEB79B838A830E94EC1E898389818633CD
:1028D00039F480914001813019F11092400120C0FB
:1028E0008981843341F4809140018823C9F081E0DB
:1028F0008093400115C08981883341F48091400163
:10290000833071F082E0809340010AC08981853371
:1029100039F480914001823019F083E080934001C6
:1029200080914101882329F482E390E00E94932C56
:10293000CACF0F900F900F90CF91DF910895DF9342
:10294000CF93CDB7DEB7A6970FB6F894DEBF0FBE14
:10295000CDBF9A8F898F188E32C0888D282F30E096
:10296000C901880F991F820F931FFC01ED5CF84F7E
:1029700081E08083888D282F30E09091E000888D61
:10298000492F481B842F482F4150C901880F991F98
:10299000820F931FFC01EC5CF84F4083888D282F39
:1029A00030E040914001C901880F991F820F931FA9
:1029B000FC01EB5CF84F4083888D8F5F888F90918E
:1029C000E000888D891748F28091E000882F90E020
:1029D00001979E8B8D8B1EC04D895E898D899E8946
:1029E0009C0121503040C901880F991F820F931F0D
:1029F000FC01EB5CF84F2081CA01880F991F840FFE
:102A0000951FFC01EB5CF84F20838D899E8901970F
:102A10009E8B8D8B8D899E8918161906ECF28091FC
:102A20004001809335078091E000882F90E09C0161
:102A300021503040C901880F991F820F931F8D5C70
:102A4000984FE0E3F7E0FE8FED8F98A38F8FF3E0D0
:102A5000F9A3EF8DF8A100802F8D38A12F5F3F4F94
:102A600038A32F8FED8DFE8D00822D8D3E8D2F5F33
:102A70003F4F3E8F2D8F39A1315039A349A14423B7
:102A800041F71C8A33C18C89282F30E0C901880F97
:102A9000991F820F931FFC01EB5CF84F8081E82F98
:102AA000F0E0FC8FEB8F2B8D3C8D2130310509F44C
:102AB00049C08B8D9C8D823091052CF4EB8DFC8D63
:102AC000309771F0E3C02B8D3C8D2230310509F435
:102AD0006DC08B8D9C8D8330910509F4A0C0D6C04C
:102AE0008C89282F30E0C901880F991F820F931F0E
:102AF000FC01EC5CF84F8081482F4F5FC901880FC3
:102B0000991F820F931FFC01EC5CF84F40838C8966
:102B1000482F50E08C89282F30E0C901880F991F79
:102B2000820F931FFC01EC5CF84F8081282F2F70DF
:102B3000CA01880F991F840F951FFC01EC5CF84FA8
:102B40002083A4C08C89282F30E0C901880F991FE9
:102B5000820F931FFC01EC5CF84F8081882371F495
:102B60008C89282F30E0C901880F991F820F931F8D
:102B7000FC01EC5CF84F8FE0808388C08C89282FA3
:102B800030E0C901880F991F820F931FFC01EC5C94
:102B9000F84F8081482F4150C901880F991F820F3B
:102BA000931FFC01EC5CF84F408370C08C89282F88
:102BB00030E0C901880F991F820F931FFC01ED5C63
:102BC000F84F8081813071F48C89282F30E0C90161
:102BD000880F991F820F931FFC01ED5CF84F82E074
:102BE000808354C08C89282F30E0C901880F991F39
:102BF000820F931FFC01ED5CF84F8081823009F059
:102C000045C08C89282F30E0C901880F991F820F99
:102C1000931FFC01ED5CF84F81E0808337C08C8905
:102C2000282F30E0C901880F991F820F931FFC01E4
:102C3000ED5CF84F8081813071F48C89282F30E071
:102C4000C901880F991F820F931FFC01ED5CF84F9B
:102C500082E080831BC08C89282F30E0C901880F57
:102C6000991F820F931FFC01ED5CF84F8081823029
:102C700069F48C89282F30E0C901880F991F820FD1
:102C8000931FFC01ED5CF84F81E080838C89282F35
:102C900030E0C901880F991F820F931FFC01ED5C82
:102CA000F84F8081882F90E0AC01415050408C89D2
:102CB000282F30E0C901880F991F820F931FFC0154
:102CC000EC5CF84F8081282F30E0CA018295929504
:102CD000907F9827807F9827820F931FFC01E55FE4
:102CE000F84F81E080838C898F5F8C8B9091E0001E
:102CF0008C89891708F4C7CE8091DD008F3F21F0C1
:102D00008091DE008F3FC1F580E10E94E431809325
:102D1000DE0082E00E94E4318F5F8093DD000BC013
:102D200080E10E94E4318093DE0082E00E94E43181
:102D30008F5F8093DD008091DD00482F50E080910F
:102D4000DE00282F30E0CA0182959295907F982767
:102D5000807F9827820F931FFC01E55FF84F8081E9
:102D60008823F1F68091DD009091DE00692F0E94AA
:102D7000EA0C88E50E94FD0B1B8A1EC01A8A16C049
:102D80008B89482F50E08A89282F30E0CA0182952C
:102D90009295907F9827807F9827820F931FFC0140
:102DA000E55FF84F10828A898F5F8A8B8A8980312C
:102DB00038F38B898F5F8B8B8B898230F8F2198A7D
:102DC00050C081EE90E060E00E94DA0D8989282FE2
:102DD00030E0C901880F991F820F931FFC01ED5C41
:102DE000F84F40818989282F30E0C901880F991F49
:102DF000820F931FFC01EC5CF84F908180E0642F00
:102E0000492F0E94060E8091E000882F90E09C01DF
:102E100021503040C901880F991F820F931FFC0178
:102E2000ED5CF84F90818091DD009817B9F48091A6
:102E3000E000882F90E09C0121503040C901880FAC
:102E4000991F820F931FFC01EC5CF84F90818091D9
:102E5000DE00981719F481E08093460189898F5F1D
:102E6000898B9091E0008989891708F4AACF809115
:102E7000300790913107692F0E94EA0C80E20E948E
:102E8000FD0B80914601882309F440C01092460151
:102E90008091E0008F5F8093E000809142018F5F1E
:102EA000809342018091E000882F90E09C012150A6
:102EB0003040C901880F991F820F931F8D5C984F76
:102EC0009BA38AA3E0E3F7E0FDA3ECA3F3E0FEA35A
:102ED000ECA1FDA100802CA13DA12F5F3F4F3DA3A0
:102EE0002CA3EAA1FBA100822AA13BA12F5F3F4FA7
:102EF0003BA32AA33EA131503EA34EA1442341F758
:102F00008FEF8093DD008FEF8093DE001F8A188A99
:102F100048C01F863DC098898F859817B1F1888970
:102F2000282F30E0C901880F991F820F931FFC01E1
:102F3000ED5CF84F40818F85282F30E0C901880F64
:102F4000991F820F931FFC01ED5CF84F8081481799
:102F5000E1F48889282F30E0C901880F991F820F7A
:102F6000931FFC01EC5CF84F40818F85282F30E0E7
:102F7000C901880F991F820F931FFC01EC5CF84F69
:102F80008081481711F481E08F8B8F858F5F8F8749
:102F90009091E0008F85891708F4BDCF88898F5FF5
:102FA000888B9091E0008889891708F4B2CF8F89C7
:102FB000882309F49BC081E0809341010E94200E88
:102FC00081E064E00E94EA0C8EE790E060E00E94FD
:102FD000190D82E064E00E94EA0C88E890E060E06D
:102FE0000E94190D80914201882F90E00E945A0D95
:102FF00080E090E0AAEFB4E48B879C87AD87BE8722
:103000006B857C858D859E8520E030E04AEF54E419
:103010000E941F02DC01CB018F839887A987BA87A2
:103020006F81788589859A8520E030E040E85FE30C
:103030000E94250488232CF481E090E09E838D83F8
:103040003FC06F81788589859A8520E03FEF4FE703
:1030500057E40E94C50318164CF56B857C858D8559
:103060009E8520E030E040E251E40E941F02DC0136
:10307000CB01BC01CD010E944900DC01CB019E8344
:103080008D830FC088EC90E09C838B838B819C8127
:103090000197F1F79C838B838D819E8101979E839D
:1030A0008D838D819E81009769F714C06F8178852B
:1030B00089859A850E944900DC01CB019E838D831E
:1030C0008D819E819A83898389819A810197F1F705
:1030D0009A83898383E08093E000A6960FB6F894E4
:1030E000DEBF0FBECDBFCF91DF9108958CE291E09E
:1030F0000E94932C69CCDF93CF9300D00F92CDB771
:10310000DEB79B838A830E94EC1E898380916607C9
:10311000909167079E012F5F3F4FB9014FEF5FEF1F
:1031200020E00E94F72680916507882341F01092E5
:1031300065070F900F900F90CF91DF91089584E66F
:1031400090E00E94932CDFCFDF93CF93CDB7DEB713
:10315000A4970FB6F894DEBF0FBECDBF9AA389A384
:103160000E94781B80916607909167079E01205E00
:103170003F4FB9014FEF5FEF20E00E94E2278091BF
:103180002D0790912E07692F0E94EA0C80E20E9481
:10319000FD0B88A1282F30E03CA32BA38BA19CA181
:1031A00085339105B1F12BA13CA12633310534F4CF
:1031B0008BA19CA184339105B1F036C02BA13CA119
:1031C0002633310531F08BA19CA188339105A9F0FC
:1031D0002BC080912E078F3038F580912E078F5F9E
:1031E00080932E0721C080912E078823E9F08091DB
:1031F0002E07815080932E0717C080912D078230B3
:1032000021F481E080932D070FC081E080932D078A
:103210000BC080912D07813021F482E080932D072F
:1032200003C082E080932D0789EE90E060E00E9469
:10323000DA0D90912D0720912E0780E0692F422F03
:103240000E94060E809168079091690760E070E027
:103250004FEF5FEF20E00E94E22780912D07882F3B
:1032600090E0AC014150504080912E07282F30E073
:10327000CA0182959295907F9827807F9827820F28
:10328000931FFC01E55FF84F80818130C1F480918C
:103290002D07882F90E0AC014150504080912E07BF
:1032A000282F30E0CA0182959295907F9827807FE1
:1032B0009827820F931FFC01E55FF84F10828091E1
:1032C00068079091690760E070E040E050E020E01E
:1032D0000E94F7261F8E1E8E22C01D8E1AC08E8D54
:1032E000482F50E08D8D282F30E0CA0182959295AD
:1032F000907F9827807F9827820F931FFC01E55FBE
:10330000F84F8081813011F481E08F8F8D8D8F5F38
:103310008D8F8D8D803118F38E8D8F5F8E8F8E8D7A
:103320008230D8F28F8D882309F080C081E08093AD
:1033300065070E94200E81E065E00E94EA0C81E9A9
:1033400090E060E00E94190D80E090E0AAEFB4E404
:10335000898F9A8FAB8FBC8F698D7A8D8B8D9C8D69
:1033600020E030E04AEF54E40E941F02DC01CB0170
:103370008D8B9E8BAF8BB88F6D897E898F89988D51
:1033800020E030E040E85FE30E94250488232CF42D
:1033900081E090E09C8B8B8B3FC06D897E898F890B
:1033A000988D20E03FEF4FE757E40E94C5031816C1
:1033B0004CF5698D7A8D8B8D9C8D20E030E040E25C
:1033C00051E40E941F02DC01CB01BC01CD010E942F
:1033D0004900DC01CB019C8B8B8B0FC088EC90E00B
:1033E0009A8B898B89899A890197F1F79A8B898BB6
:1033F0008B899C8901979C8B8B8B8B899C890097EF
:1034000069F714C06D897E898F89988D0E94490063
:10341000DC01CB019C8B8B8B8B899C89988B8F8754
:103420008F8598890197F1F7988B8F8790912D0759
:1034300080916007981709F088C090912E078091BD
:103440006107981709F081C081E0809365070E94A9
:10345000200E81E064E00E94EA0C89E990E060E0DF
:103460000E94190D80E090E0AAEFB4E48B879C875E
:10347000AD87BE876B857C858D859E8520E030E09D
:103480004AEF54E40E941F02DC01CB018F8398872E
:10349000A987BA876F81788589859A8520E030E091
:1034A00040E85FE30E94250488232CF481E090E04B
:1034B0009E838D833FC06F81788589859A8520E0C2
:1034C0003FEF4FE757E40E94C50318164CF56B8594
:1034D0007C858D859E8520E030E040E251E40E94AD
:1034E0001F02DC01CB01BC01CD010E944900DC01BF
:1034F000CB019E838D830FC088EC90E09C838B83EF
:103500008B819C810197F1F79C838B838D819E81B8
:1035100001979E838D838D819E81009769F71AC0E4
:103520006F81788589859A850E944900DC01CB01ED
:103530009E838D838D819E819A83898389819A81DF
:103540000197F1F79A83898305C084E690E00E9491
:10355000932C08CEA4960FB6F894DEBF0FBECDBF55
:10356000CF91DF910895DF93CF9300D000D0CDB7F6
:10357000DEB79C838B8381E0809360078FE080932C
:10358000610781E08093620781EF90E068E00E942C
:10359000DA0D909160072091610781E0692F422F39
:1035A0000E94060E82E00E94E4318F5F8A8383E0EE
:1035B0000E94E43189838091600790916107692FAF
:1035C0000E94EA0C80E20E94FD0B8A8180936007D2
:1035D00089818130C9F480916107882381F18091CC
:1035E0004801882349F481E0809348018091610774
:1035F00081508093610723C0109248018091610738
:103600008250809361071BC089818230C1F4809110
:1036100061078F30A0F480914701882349F481E04D
:1036200080934701809161078F5F8093610707C096
:1036300010924701809161078E5F8093610781EF4F
:1036400090E068E00E94DA0D909160072091610798
:1036500081E0692F422F0E94060E80914901882344
:1036600081F080914B0190914A01692F0E94EA0CF0
:1036700088E70E94FD0B10924B0110924A011092B4
:10368000490180916007882F90E0AC014150504083
:1036900080916107282F30E0CA0182959295907F32
:1036A0009827807F9827820F931FFC01E55FF84FD2
:1036B0008081813059F48091600780934B01809123
:1036C000610780934A0181E08093490180916507F9
:1036D000882349F0109265070F900F900F900F907C
:1036E000CF91DF9108958CE291E00E94932C5ACF04
:1036F000DF93CF9300D0CDB7DEB781E080932D0765
:1037000010922E0710922F0789EE90E060E00E9441
:10371000DA0D90912D0720912E0780E0692F422F1E
:103720000E94060E81E08A8335C019822DC08A81ED
:10373000813019F48981882321F18A81813019F43B
:1037400089818F30F1F08A8169810E94EA0C88E7D3
:103750000E94FD0B8A81882F90E0AC0141505040BF
:103760008981282F30E0CA0182959295907F982711
:10377000807F9827820F931FFC01E55FF84F81E05F
:10378000808389818F5F89838981803180F28A81FA
:103790008F5F8A838A81833040F20F900F90CF91A0
:1037A000DF910895DF93CF9300D00F92CDB7DEB7AE
:1037B0009B838A830E94EC1E89838981883399F4D4
:1037C00082E061E00E94EA0C80E20E94FD0B84E04E
:1037D00061E041E00E94060E81E080932B0781E0CA
:1037E00080932C0715C08981853391F481E061E0D5
:1037F0000E94EA0C80E20E94FD0B84E062E041E05E
:103800000E94060E82E080932B0781E080932C07B4
:1038100080914501882329F484E690E00E94932C4E
:10382000C9CF0F900F900F90CF91DF910895DF9344
:10383000CF9300D00F92CDB7DEB79B838A8384E00D
:103840000E94E431898380914D01833018F01092F9
:103850004D01198280914C01833020F010924C016F
:1038600081E089838981882319F089818230C1F4BC
:1038700081E06EE00E94EA0C80E20E94FD0B84E091
:1038800062E04EE00E94060E82E0809363078EE0C5
:103890008093640780914C018F5F80934C011DC021
:1038A0008981813019F089818330B9F482E06EE03A
:1038B0000E94EA0C80E20E94FD0B84E061E04EE091
:1038C0000E94060E81E0809363078EE08093640778
:1038D00080914D018F5F80934D0180914501882338
:1038E00029F48AEF90E00E94932CA9CF0F900F90BB
:1038F0000F90CF91DF910895DF93CF93CDB7DEB7CF
:1039000060970FB6F894DEBF0FBECDBF988B8F8740
:103910000E94151E9091630780913101981781F4E0
:103920009091640780913201981751F481E080935F
:103930004E018DE0809332018EE08093340114C0FB
:1039400090912B0780913101981771F490912C0779
:1039500080913201981741F482E08093320181E036
:103960008093340110924E0180914E01882309F01A
:1039700052C0809132018F5F809332018091340177
:103980008F5F80933401809132018F30A1F5909147
:103990006307809131019817D9F490916407809161
:1039A00032019817A9F481E080934E018DE0809355
:1039B00032018EE08093340180916307813021F4DD
:1039C00082E08093310113C081E0809331010FC008
:1039D000809143018F5F8093430182E080933201A5
:1039E00081E08093340180912B0780933101809195
:1039F00031018093330180913401823008F45AC040
:103A00008091330190913401692F0E94EA0C80E289
:103A10000E94FD0B4FC08091320181508093320192
:103A200080913401815080933401809134018E3033
:103A300050F48091330190913401692F0E94EA0C77
:103A400080E20E94FD0B80913201813099F59091C6
:103A50002B07809131019817D1F490912C07809118
:103A600032019817A1F482E08093320181E08093C3
:103A7000340110924E0180912B07813021F482E0B5
:103A80008093310113C081E0809331010FC0809198
:103A900044018F5F809344018DE0809332018EE07A
:103AA00080933401809163078093310180913101CB
:103AB0008093330189E291E068E30E94DA0D9091EE
:103AC00031012091320187E0692F422F0E94060EBA
:103AD00080914401853028F480914301853008F4B9
:103AE00096C00E94200E81E060E00E94EA0C82EA0B
:103AF00090E060E00E94190D80914301882F90E0D2
:103B00000E945A0D82E060E00E94EA0C8DEA90E08B
:103B100060E00E94190D80914401882F90E00E947E
:103B20005A0D81E08093450180E090E0AAEFB4E473
:103B30008B879C87AD87BE876B857C858D859E85B1
:103B400020E030E04AEF54E40E941F02DC01CB0188
:103B50008F839887A987BA876F81788589859A85A9
:103B600020E030E040E85FE30E94250488232CF445
:103B700081E090E09E838D833FC06F817885898549
:103B80009A8520E03FEF4FE757E40E94C5031816DF
:103B90004CF56B857C858D859E8520E030E040E28C
:103BA00051E40E941F02DC01CB01BC01CD010E9447
:103BB0004900DC01CB019E838D830FC088EC90E02F
:103BC0009C838B838B819C810197F1F79C838B83F2
:103BD0008D819E8101979E838D838D819E8100972B
:103BE00069F71AC06F81788589859A850E94490096
:103BF000DC01CB019E838D838D819E819A83898395
:103C000089819A810197F1F79A83898305C084E6B7
:103C100090E00E94932C7ECE60960FB6F894DEBFA3
:103C20000FBECDBFCF91DF910895DF93CF93CDB776
:103C3000DEB72E970FB6F894DEBF0FBECDBF89EF6B
:103C400090E060E00E94DA0D80E061E040E00E94D8
:103C5000060E81E091E068E00E94DA0D81E062E00A
:103C600040E00E94060E89E091E060E10E94DA0DDA
:103C700082E061E04FE00E94060E81E191E068E1A0
:103C80000E94DA0D83E062E04FE00E94060E81E2BE
:103C900091E060E20E94DA0D84E062E041E00E947F
:103CA000060E82E080932B0781E080932C0789E148
:103CB00091E068E20E94DA0D85E062E04EE00E9449
:103CC000060E82E0809363078EE08093640780E0B5
:103CD00090E0AAEFB3E48B879C87AD87BE876B85A6
:103CE0007C858D859E8520E030E04AEF54E40E947B
:103CF0001F02DC01CB018F839887A987BA876F8168
:103D0000788589859A8520E030E040E85FE30E946D
:103D1000250488232CF481E090E09E838D833FC0AE
:103D20006F81788589859A8520E03FEF4FE757E4DA
:103D30000E94C50318164CF56B857C858D859E8584
:103D400020E030E040E251E40E941F02DC01CB01A0
:103D5000BC01CD010E944900DC01CB019E838D8313
:103D60000FC088EC90E09C838B838B819C810197B2
:103D7000F1F79C838B838D819E8101979E838D8338
:103D80008D819E81009769F714C06F817885898540
:103D90009A850E944900DC01CB019E838D838D8131
:103DA0009E819A83898389819A810197F1F79A8309
:103DB000898389E191E060E20E94DA0D84E062E0AB
:103DC00041E00E94060E2E960FB6F894DEBF0FBE9D
:103DD000CDBFCF91DF910895DF93CF930F92CDB7F1
:103DE000DEB7CE0101960E944F0689818F3FC9F34D
:103DF00089810F90CF91DF910895DF93CF93CDB755
:103E0000DEB727970FB6F894DEBF0FBECDBF9D83F8
:103E10008C836E834F838AE190E00E94D5219A8340
:103E2000898389819A81009709F46FC080914F013D
:103E300090915001009741F489819A8190935001AB
:103E400080934F010E9464218E81823010F081E0C6
:103E50008E83E981FA81118E108EE981FA818E813B
:103E6000868BE981FA818F81878BE981FA818C8148
:103E70009D819183808389819A8102960E946B2221
:103E800089819A810C960E946B22E981FA8189814D
:103E90009A8191878087E981FA8189819A81938BC0
:103EA000828B8E81282F30E086E090E0821B930B7E
:103EB000E981FA8195878487E981FA8196898091E1
:103EC0005101891728F4E981FA818689809351018B
:103ED000E981FA818689282F30E0C901880F991F6E
:103EE000880F991F880F991F820F931FAC01485AA2
:103EF0005E4F89819A819C012E5F3F4FCA01B901B3
:103F00000E947B2281E08B8302C08FEF8B838B81A9
:103F100027960FB6F894DEBF0FBECDBFCF91DF91CD
:103F20000895DF93CF9300D000D000D0CDB7DEB797
:103F30009C838B837E836D8320915201309153014A
:103F40008B819C81820F931F9A83898380914F017B
:103F50009091500102960E943323E0914F01F0911D
:103F6000500189819A8193838283209152013091FB
:103F7000530189819A818217930770F480917E01A1
:103F800090917F0120914F01309150012E5F3F4F62
:103F9000B9010E94C7220DC080917C0190917D01E2
:103FA00020914F01309150012E5F3F4FB9010E9487
:103FB000C7228D819E81009761F080914F01909181
:103FC00050019C01245F3F4F8D819E81B9010E9469
:103FD000C72226960FB6F894DEBF0FBECDBFCF9195
:103FE000DF910895DF93CF9300D0CDB7DEB73AC00D
:103FF000F894E0918501F0918601868197819A83FA
:10400000898389819A810C960E94332378948981CF
:104010009A8102960E943323E981FA8196898091E0
:104020005101891728F4E981FA8186898093510129
:10403000E981FA818689282F30E0C901880F991F0C
:10404000880F991F880F991F820F931FAC01485A40
:104050005E4F89819A819C012E5F3F4FCA01B90151
:104060000E947B2280918001882309F0C1CF0F90AC
:104070000F90CF91DF910895DF93CF9300D000D0C0
:10408000CDB7DEB70E94A12D20915401309155018A
:10409000821B930B909357018093560185C08091AA
:1040A00052019091530101969093530180935201D4
:1040B00080915601909157010197909357018093F9
:1040C00056018091520190915301009709F064C00C
:1040D00080917C0190917D019A83898380917E01FA
:1040E00090917F0190937D0180937C0189819A81D9
:1040F00090937F0180937E014FC0E0917C01F0910D
:104100007D010580F681E02D868197819C838B83DC
:10411000EB81FC8122813381809152019091530186
:104120008217930708F440C0F8948B819C81029613
:104130000E943323EB81FC8184899589009729F0C3
:104140008B819C810C960E9433237894EB81FC81B7
:10415000968980915101891728F4EB81FC81868929
:1041600080935101EB81FC818689282F30E0C901C1
:10417000880F991F880F991F880F991F820F931F0F
:10418000AC01485A5E4F8B819C819C012E5F3F4F52
:10419000CA01B9010E947B22E0917C01F0917D016E
:1041A0008081882309F0A9CF809156019091570111
:1041B000009709F074CF8091520190915301909330
:1041C0005501809354010F900F900F900F90CF9155
:1041D000DF910895DF93CF9300D0CDB7DEB70E9473
:1041E000F21F0E943C200AC080915101882309F4EB
:1041F00066C080915101815080935101809151019D
:10420000282F30E0C901880F991F880F991F880F48
:10421000991F820F931FFC01E85AFE4F808188236B
:1042200019F380915101282F30E0C901880F991F9F
:10423000880F991F880F991F820F931F885A9E4FCE
:104240009A838983E981FA810180F281E02D82815C
:104250009381E981FA8192838183E981FA812181C5
:10426000328189819A8103962817390759F4E981A7
:10427000FA810180F281E02D82819381E981FA81C6
:1042800092838183E981FA810180F281E02D868128
:1042900097819093500180934F01E0914F01F091ED
:1042A00050014081518180914F0190915001E091E6
:1042B0004F01F09150012789622FFA0109950F9063
:1042C0000F90CF91DF910895DF93CF930F92CDB7E9
:1042D000DEB7198213C08981282F30E0C901880F09
:1042E000991F880F991F880F991F820F931F885A53
:1042F0009E4F0E94412289818F5F8983898182300C
:1043000050F38AE691E00E94412283E791E00E9407
:10431000412280E891E00E9441228AE691E0909358
:104320007D0180937C0183E791E090937F018093EE
:104330007E010F90CF91DF910895DF93CF9300D04E
:1043400000D00F92CDB7DEB79D838C83EC81FD81C9
:104350000580F681E02D868197819B838A838A81FF
:104360009B810C960E9433238A819B819C01245F50
:104370003F4F80E891E0B9010E947B22EA81FB81F6
:104380009689E0914F01F09150018689981718F0B5
:1043900081E0898301C0198289810F900F900F906D
:1043A0000F900F90CF91DF910895DF93CF9300D0BE
:1043B00000D0CDB7DEB79C838B831A8219820E940E
:1043C0000B2D8091890190918A012B813C81820F74
:1043D000931F25E08431920718F5209189013091CF
:1043E0008A018B819C81280F391F809189019091CE
:1043F0008A0182179307A0F48091890190918A0124
:1044000085579E4F9A8389832091890130918A0133
:104410008B819C81820F931F90938A0180938901E5
:104420000E94172D89819A810F900F900F900F9005
:10443000CF91DF910895DF93CF9300D0CDB7DEB752
:104440009A8389830F900F90CF91DF910895DF9326
:10445000CF93CDB7DEB710928A0110928901CF9128
:10446000DF910895DF93CF93CDB7DEB72091890117
:1044700030918A0184E195E0821B930BCF91DF910B
:104480000895DF93CF9300D0CDB7DEB79A838983A9
:1044900089819A810396E981FA8192838183E981F6
:1044A000FA818FEF9FEF9483838389819A810396AA
:1044B000E981FA819683858389819A810396E981CE
:1044C000FA8190878783E981FA8110820F900F909B
:1044D000CF91DF910895DF93CF9300D0CDB7DEB7B2
:1044E0009A838983E981FA81118610860F900F9053
:1044F000CF91DF910895DF93CF9300D000D000D00B
:10450000CDB7DEB79C838B837E836D83EB81FC818B
:10451000818192819A838983E981FA818281938161
:10452000ED81FE8193838283EB81FC818181928185
:10453000ED81FE8195838483E981FA810280F38194
:10454000E02D8D819E81958384838D819E81E9817B
:10455000FA81938382838D819E81EB81FC8192839A
:104560008183ED81FE818B819C8191878087EB81A6
:10457000FC8180818F5FEB81FC81808326960FB662
:10458000F894DEBF0FBECDBFCF91DF910895DF93CA
:10459000CF93CDB7DEB728970FB6F894DEBF0FBE26
:1045A000CDBF9E838D8378876F83EF81F88580816F
:1045B00091819A83898389819A812FEF8F3F920716
:1045C00039F4ED81FE81878190859C838B8318C0AF
:1045D0008D819E8103969C838B8306C0EB81FC8139
:1045E000828193819C838B83EB81FC810280F381A8
:1045F000E02D2081318189819A818217930770F79C
:10460000EB81FC8182819381EF81F88593838283A2
:10461000EF81F8850280F381E02D8F819885958365
:104620008483EF81F8858B819C81958384838F813E
:104630009885EB81FC8193838283EF81F8858D815E
:104640009E8191878087ED81FE8180818F5FED81E2
:10465000FE81808328960FB6F894DEBF0FBECDBFD3
:10466000CF91DF910895DF93CF9300D000D0CDB7E5
:10467000DEB79C838B83EB81FC81A281B381EB81CC
:10468000FC818481958115969C938E931497EB8180
:10469000FC81A481B581EB81FC8182819381139699
:1046A0009C938E931297EB81FC81808591859A83F0
:1046B0008983E981FA81218132818B819C8128174C
:1046C000390741F4EB81FC8184819581E981FA818C
:1046D00092838183EB81FC8111861086E981FA81C6
:1046E00080818150E981FA8180830F900F900F9033
:1046F0000F90CF91DF910895DF93CF93CDB7DEB7C1
:1047000028970FB6F894DEBF0FBECDBF9C838B8376
:104710007E836D8358874F83EB81FC8181E18083A9
:104720008B819C8101979C838B83EB81FC8182E24E
:1047300080838B819C8101979C838B83EB81FC819F
:1047400083E380838B819C8101979C838B838D8104
:104750009E819A8389838981EB81FC8180838B810F
:104760009C8101979C838B8389819A81892F9927CA
:104770009A8389838981EB81FC8180838B819C81F1
:1047800001979C838B83EB81FC8110828B819C81C0
:1047900001979C838B83EB81FC8180E880838B81F4
:1047A0009C8101979C838B83EB81FC8110828B81A0
:1047B0009C8101979C838B83EB81FC8182E08083C9
:1047C0008B819C8101979C838B83EB81FC8183E0AF
:1047D00080838B819C8101979C838B83EB81FC81FF
:1047E00084E080838B819C8101979C838B83EB8108
:1047F000FC8185E080838B819C8101979C838B83E6
:10480000EB81FC8186E080838B819C8101979C8376
:104810008B83EB81FC8187E080838B819C81019776
:104820009C838B83EB81FC8188E080838B819C81DE
:1048300001979C838B83EB81FC8189E080838B8152
:104840009C8101979C838B83EB81FC8180E1808339
:104850008B819C8101979C838B83EB81FC8181E11F
:1048600080838B819C8101979C838B83EB81FC816E
:1048700082E180838B819C8101979C838B83EB8178
:10488000FC8183E180838B819C8101979C838B8356
:10489000EB81FC8184E180838B819C8101979C83E7
:1048A0008B83EB81FC8185E180838B819C810197E7
:1048B0009C838B83EB81FC8186E180838B819C814F
:1048C00001979C838B83EB81FC8187E180838B81C3
:1048D0009C8101979C838B83EB81FC8188E18083A1
:1048E0008B819C8101979C838B83EB81FC8189E187
:1048F00080838B819C8101979C838B83EB81FC81DE
:1049000080E280838B819C8101979C838B83EB81E8
:10491000FC8181E280838B819C8101979C838B83C6
:10492000EB81FC8182E280838B819C8101979C8357
:104930008B83EB81FC8183E280838B819C81019757
:104940009C838B838F8198859A8389838981EB816E
:10495000FC8180838B819C8101979C838B838981DF
:104960009A81892F99279A8389838981EB81FC8198
:1049700080838B819C8101979C838B83EB81FC815D
:1049800086E280838B819C8101979C838B83EB8162
:10499000FC8187E280838B819C8101979C838B8340
:1049A000EB81FC8188E280838B819C8101979C83D1
:1049B0008B83EB81FC8189E280838B819C810197D1
:1049C0009C838B83EB81FC8180E380838B819C8142
:1049D00001979C838B83EB81FC8181E380838B81B6
:1049E0009C8101979C838B838B819C8128960FB639
:1049F000F894DEBF0FBECDBFCF91DF910895DF9356
:104A0000CF93CDB7DEB70E94EF25A0919F06B0915E
:104A1000A006CD91CDBFDD91DEBFFF91EF91DF917B
:104A2000CF91BF91AF919F918F917F916F915F9146
:104A30004F913F912F911F910F91FF90EF90DF9039
:104A4000CF90BF90AF909F908F907F906F905F902E
:104A50004F903F902F901F900F900FBE0F90089592
:104A600081E0CF91DF910895DF93CF93CDB7DEB78B
:104A7000CF91DF9108950F920FB6F8940F921F9285
:104A800011242F923F924F925F926F927F928F925A
:104A90009F92AF92BF92CF92DF92EF92FF920F93CD
:104AA0001F932F933F934F935F936F937F938F93B6
:104AB0009F93AF93BF93CF93DF93EF93FF93A09117
:104AC0009F06B091A0060DB60D920EB60D920E94F3
:104AD000AB2EA0919F06B091A006CD91CDBFDD91E8
:104AE000DEBFFF91EF91DF91CF91BF91AF919F9189
:104AF0008F917F916F915F914F913F912F911F9176
:104B00000F91FF90EF90DF90CF90BF90AF909F906C
:104B10008F907F906F905F904F903F902F901F905D
:104B20000F900FBE0F9008950F920FB6F8940F924A
:104B30001F9211242F923F924F925F926F927F9219
:104B40008F929F92AF92BF92CF92DF92EF92FF929D
:104B50000F931F932F933F934F935F936F937F9385
:104B60008F939F93AF93BF93CF93DF93EF93FF9375
:104B7000A0919F06B091A0060DB60D920EB60D92B3
:104B80000E94D62D0E94AB2EA0919F06B091A00648
:104B9000CD91CDBFDD91DEBFFF91EF91DF91CF9140
:104BA000BF91AF919F918F917F916F915F914F9145
:104BB0003F912F911F910F91FF90EF90DF90CF9039
:104BC000BF90AF909F908F907F906F905F904F902D
:104BD0003F902F901F900F900FBE0F900895DF937E
:104BE000CF9300D000D000D0CDB7DEB780E49FE1F6
:104BF000A0E0B0E08B839C83AD83BE838B819C81DE
:104C0000AD81BE81689415F8B695A795979587955F
:104C10001694D1F78B839C83AD83BE838B819C815B
:104C2000AD81BE810197A109B1098B839C83AD83BE
:104C3000BE838B8189838B819C81AD81BE81892FCD
:104C40009A2FAB2FBB278B839C83AD83BE838B8135
:104C50008A83EBE4F0E08A818083EAE4F0E08981F2
:104C600080838BE08983EEE4F0E089818083E9E54D
:104C7000F0E080818983898180618983E9E5F0E0C2
:104C80008981808326960FB6F894DEBF0FBECDBF14
:104C9000CF91DF9108950E9494251895DF93CF93CB
:104CA000CDB7DEB728970FB6F894DEBF0FBECDBFE5
:104CB0008F8368871A8219828F81882309F48CC0B8
:104CC0008FE190E00E94D5219E838D838D819E810E
:104CD000009709F481C08F81282F30E08885882FC4
:104CE00090E0AC01249FC001259F900D349F900D52
:104CF000112401969C838B838B819C810E94D521FA
:104D0000ED81FE8191838083ED81FE81808191819F
:104D1000009709F45DC0ED81FE81408151818F8152
:104D2000282F30E08885882F90E0BC01269FC001A5
:104D3000279F900D369F900D1124840F951FED81B4
:104D4000FE8193838283ED81FE81128EED81FE814F
:104D500080819181ED81FE8195838483ED81FE8147
:104D6000408151818F81882F90E09C0121503040FB
:104D70008885882F90E0BC01269FC001279F900D59
:104D8000369F900D1124840F951FED81FE8197832E
:104D90008683ED81FE818F81838FED81FE81888501
:104DA000848FED81FE818FEF858FED81FE818FEF06
:104DB000868F8D819E8108960E9441228D819E81E1
:104DC00041960E9441228D819E819A83898304C0ED
:104DD0008D819E810E941B2289819A8128960FB61F
:104DE000F894DEBF0FBECDBFCF91DF910895DF9362
:104DF000CF93CDB7DEB72C970FB6F894DEBF0FBEBA
:104E0000CDBF9E838D8378876F835A8749872B8791
:104E100019820FB6F8940F92ED81FE81928DED818B
:104E2000FE81838D9817D8F48D819E812F813885DE
:104E3000B9014B850E943229ED81FE818189882349
:104E400049F08D819E8141960E94472F813011F457
:104E50000E943B250F900FBE81E08C875CC0898546
:104E60009A85009721F40F900FBE1C8654C089814B
:104E7000882331F4CE0102960E94AF2F81E089830E
:104E80000F900FBE0E940B2D0FB6F8940F92ED817C
:104E9000FE81858D8F3F19F4ED81FE81158EED81A8
:104EA000FE81868D8F3F19F4ED81FE81168E0F9065
:104EB0000FBECE0102969E01275F3F4FB9010E94AF
:104EC000C82F882309F58D819E810E94962A882308
:104ED000A1F08D819E81089629853A85B9010E94AD
:104EE000112F8D819E810E940F2A0E94172D8823E9
:104EF00009F08FCF0E943B258CCF8D819E810E942F
:104F00000F2A0E94172D85CF8D819E810E940F2A26
:104F10000E94172D1C868C852C960FB6F894DEBF48
:104F20000FBECDBFCF91DF910895DF93CF93CDB763
:104F3000DEB729970FB6F894DEBF0FBECDBF9C83B6
:104F40008B837E836D8358874F8329871982EB81FA
:104F5000FC81928DEB81FC81838D981740F58B81CC
:104F60009C812D813E81B90149850E943229EB81C6
:104F7000FC81868D8F3F89F4EB81FC8181898823B8
:104F800099F08B819C8141960E94472F882361F084
:104F9000EF81F88581E0808307C0EB81FC81868DFD
:104FA0008F5FEB81FC81868F81E08A8301C01A824A
:104FB0008A8129960FB6F894DEBF0FBECDBFCF9180
:104FC000DF910895DF93CF93CDB7DEB72E970FB65D
:104FD000F894DEBF0FBECDBF98878F837A8769872D
:104FE0005C874B872D871B820FB6F8940F92EF8159
:104FF000F885828D882309F43FC0EF81F88586818A
:1050000097819A8389838F81988529853A85B9010B
:105010000E94C7298D858823B1F4EF81F885828DA0
:105020008150EF81F885828FEF81F8858085882314
:10503000F1F08F81988508960E94472F8130B9F44E
:105040000E943B2514C0EF81F88589819A8197835E
:105050008683EF81F8858189882349F08F8198853F
:1050600041960E94472F882311F00E943B250F9004
:105070000FBE81E08E875CC08B859C85009721F4F4
:105080000F900FBE1E8654C08B81882331F4CE0151
:1050900004960E94AF2F81E08B830F900FBE0E9479
:1050A0000B2D0FB6F8940F92EF81F885858D8F3F09
:1050B00019F4EF81F885158EEF81F885868D8F3F85
:1050C00019F4EF81F885168E0F900FBECE0104966D
:1050D0009E01255F3F4FB9010E94C82F882309F523
:1050E0008F8198850E94632A8823A1F08F819885FB
:1050F00041962B853C85B9010E94112F8F8198859F
:105100000E940F2A0E94172D882309F06DCF0E945C
:105110003B256ACF8F8198850E940F2A0E94172D08
:1051200063CF8F8198850E940F2A0E94172D1E86BB
:105130008E852E960FB6F894DEBF0FBECDBFCF91F1
:10514000DF910895DF93CF93CDB7DEB728970FB6E1
:10515000F894DEBF0FBECDBF9C838B837E836D83AF
:1051600058874F831982EB81FC81828D882371F1EE
:105170008B819C812D813E81B9010E94C729EB81E1
:10518000FC81828D8150EB81FC81828FEB81FC81DF
:10519000858D8F3F89F4EB81FC818085882399F090
:1051A0008B819C8108960E94472F882361F0EF81B4
:1051B000F88581E0808307C0EB81FC81858D8F5F5E
:1051C000EB81FC81858F81E08A8301C01A828A810C
:1051D00028960FB6F894DEBF0FBECDBFCF91DF91FA
:1051E0000895DF93CF9300D00F92CDB7DEB79B83A6
:1051F0008A830FB6F8940F92EA81FB81828D8983AE
:105200000F900FBE89810F900F900F90CF91DF917B
:105210000895DF93CF9300D00F92CDB7DEB79B8375
:105220008A83EA81FB81828D898389810F900F9027
:105230000F90CF91DF910895DF93CF9300D0CDB73A
:10524000DEB79A838983E981FA81808191810E9406
:105250001B2289819A810E941B220F900F90CF916F
:10526000DF910895DF93CF9300D000D00F92CDB798
:10527000DEB79A8389837C836B834D83E981FA81CE
:10528000848D882309F474C08D81882399F5E98180
:10529000FA8164817581E981FA81848D482F50E01B
:1052A0002B813C81CB01B9010E945032E981FA8106
:1052B00024813581E981FA81848D882F90E0820FE5
:1052C000931FE981FA8195838483E981FA8124819E
:1052D0003581E981FA81828193812817390708F4A1
:1052E00047C0E981FA8180819181E981FA819583C2
:1052F00084833EC0E981FA8166817781E981FA8100
:10530000848D482F50E02B813C81CB01B9010E9454
:105310005032E981FA8126813781E981FA81848DD1
:10532000882F90E0909581959F4F820F931FE98180
:10533000FA8197838683E981FA8126813781E98121
:10534000FA81808191812817390790F4E981FA81E7
:1053500022813381E981FA81848D882F90E09095B4
:1053600081959F4F820F931FE981FA8197838683EE
:10537000E981FA81828D8F5FE981FA81828F0F90B6
:105380000F900F900F900F90CF91DF910895DF93C2
:10539000CF9300D000D0CDB7DEB79A8389837C83CA
:1053A0006B83E981FA8180819181009789F1E9819C
:1053B000FA8126813781E981FA81848D882F90E0F6
:1053C000820F931FE981FA8197838683E981FA81AD
:1053D00026813781E981FA818281938128173907F3
:1053E00040F0E981FA8180819181E981FA81978396
:1053F0008683E981FA8146815781E981FA81848D2A
:10540000282F30E08B819C81BA01A9010E94503283
:105410000F900F900F900F90CF91DF910895DF9331
:10542000CF9300D0CDB7DEB79A8389830FB6F894B7
:105430000F9215C0E981FA8181898823A9F08981B9
:105440009A8141960E94472F882311F00E942530AF
:10545000E981FA81868D8150E981FA81868FE9811F
:10546000FA81868D181634F3E981FA818FEF868FE1
:105470000F900FBE0FB6F8940F9215C0E981FA8114
:1054800080858823A9F089819A8108960E94472FF8
:10549000882311F00E942530E981FA81858D8150A1
:1054A000E981FA81858FE981FA81858D181634F3B7
:1054B000E981FA818FEF858F0F900FBE0F900F90CB
:1054C000CF91DF910895DF93CF9300D00F92CDB7A6
:1054D000DEB79B838A830FB6F8940F92EA81FB8133
:1054E000828D1982882311F481E089830F900FBE89
:1054F00089810F900F900F90CF91DF910895DF93E6
:10550000CF9300D00F92CDB7DEB79B838A83EA8119
:10551000FB81828D1982882311F481E0898389813E
:105520000F900F900F90CF91DF910895DF93CF935D
:1055300000D00F92CDB7DEB79B838A830FB6F89465
:105540000F92EA81FB81928DEA81FB81838D198222
:10555000981711F481E089830F900FBE89810F9015
:105560000F900F90CF91DF910895DF93CF9300D0EC
:105570000F92CDB7DEB79B838A83EA81FB81928D40
:10558000EA81FB81838D1982981711F481E0898368
:1055900089810F900F900F90CF91DF910895AF9276
:1055A000BF92CF92DF92EF92FF920F931F93DF9300
:1055B000CF93CDB7DEB764970FB6F894DEBF0FBEBA
:1055C000CDBF9F838E83798768875B874A873D87B6
:1055D0002C870E87F88AEF86DA8AC98ABC8AAB8A5A
:1055E0008A859B8529893A89B9010E9454319C8317
:1055F0008B838B819C81009709F499C0EB81FC819E
:105600002789308D8A859B850197820F931F9A8306
:1056100089838B819C8128853985EB89FC89AA85C2
:10562000BB85B9014E859F018D010E94393089816A
:105630009A812E813F814C855D85B9010E947C2332
:10564000EB81FC81918380838F859889009731F06D
:10565000EF85F8898B819C81918380830FB6F894C4
:105660000F928091A2068F5F8093A20680919F0681
:105670009091A006009769F48B819C819093A0067D
:1056800080939F068091A2068130A9F40E949030F9
:1056900012C08091A706882371F4E0919F06F091D3
:1056A000A00696898E85891730F08B819C81909316
:1056B000A00680939F06EB81FC8196898091A506C8
:1056C000891728F4EB81FC8186898093A506809157
:1056D000AC068F5F8093AC06EB81FC81968980914C
:1056E000A606891728F4EB81FC8186898093A6069B
:1056F000EB81FC818689282F30E0C901880F991F32
:10570000880F991F880F991F820F931FAC01435573
:10571000594F8B819C819C012E5F3F4FCA01B9017B
:105720000E947B2281E08D830F900FBE02C08FEF1D
:105730008D838D81813071F48091A706882351F08B
:10574000E0919F06F091A00696898E85981710F437
:105750000E943B258D8164960FB6F894DEBF0FBE84
:10576000CDBFCF91DF911F910F91FF90EF90DF9010
:10577000CF90BF90AF900895DF93CF9300D000D02B
:1057800000D0CDB7DEB79C838B830FB6F8940F9211
:1057900020919F063091A0068B819C8182179307F0
:1057A00011F41C821B828B819C81009739F48091BB
:1057B0009F069091A0069E838D8304C08B819C815F
:1057C0009E838D838D819E819A83898389819A812D
:1057D00002960E943323E981FA8184899589009792
:1057E00029F089819A810C960E94332389819A81BC
:1057F0009C012E5F3F4F82E097E0B9010E947B221F
:105800008091A1068F5F8093A1068091AC068F5F87
:105810008093AC060F900FBE8091A706882331F0CD
:105820008B819C81009711F40E943B2526960FB630
:10583000F894DEBF0FBECDBFCF91DF910895DF9307
:10584000CF93CDB7DEB728970FB6F894DEBF0FBE63
:10585000CDBF9E838D8378876F8319820E940B2D25
:10586000ED81FE81208131818F819885820F931F88
:105870009C838B83ED81FE81208131818091A30601
:105880009091A40682179307A8F4ED81FE812081F0
:1058900031818B819C818217930700F52091A306AB
:1058A0003091A4068B819C8128173907B8F481E0D8
:1058B000898314C0ED81FE81208131818B819C819F
:1058C0008217930748F02091A3063091A4068B819C
:1058D0009C812817390710F481E08983ED81FE81CE
:1058E0008B819C81918380838981882359F0809169
:1058F0009F069091A00602960E9433238B819C8183
:105900000E940B310E94172D8A838A81882311F40B
:105910000E943B2528960FB6F894DEBF0FBECDBF80
:10592000CF91DF910895DF93CF9300D000D00F92F5
:10593000CDB7DEB79D838C8319828C819D810097C2
:10594000D1F00E940B2D2091A3063091A4068C81EA
:105950009D81820F931F9B838A8380919F069091E4
:10596000A00602960E9433238A819B810E940B31FC
:105970000E94172D89838981882311F40E943B2579
:105980000F900F900F900F900F90CF91DF9108958F
:10599000AF92BF92CF92DF92EF92FF920F93DF937D
:1059A000CF930F92CDB7DEB728EB30E08FE290E3D4
:1059B000B90145E550E020E030E000E0EE24FF24AE
:1059C000CC24DD24AA24BB240E94CF2A8983898188
:1059D000813051F4F89481E08093A7061092A406D8
:1059E0001092A3060E94FF240F90CF91DF910F9198
:1059F000FF90EF90DF90CF90BF90AF900895DF932E
:105A0000CF93CDB7DEB7F8941092A7060E94342545
:105A1000CF91DF910895DF93CF93CDB7DEB780911B
:105A2000A8068F5F8093A806CF91DF910895DF933A
:105A3000CF9300D000D0CDB7DEB71A820FB6F8945E
:105A40000F928091A80681508093A8068091A806A5
:105A5000882309F06CC08091A206882309F467C0EE
:105A6000198241C0E091FE06F091FF068681978180
:105A70009C838B838B819C810C960E9433238B812A
:105A80009C8102960E943323EB81FC819689809150
:105A9000A606891728F4EB81FC8186898093A606E7
:105AA000EB81FC818689282F30E0C901880F991F7E
:105AB000880F991F880F991F820F931F8355994F45
:105AC0002B813C812E5F3F4FB9010E947B22EB81ED
:105AD000FC819689E0919F06F091A006868998172F
